:020000040800F2
:1000000000500020890300081103000819030008AC
:100010002103000829030008310300080000000044
:10002000000000000000000000000000390300088C
:100030004503000800000000510300085D030008AC
:10004000D1030008D1030008D1030008D103000840
:10005000D1030008D1030008D1030008D103000830
:10006000D1030008D1030008D1030008D103000820
:10007000D1030008D1030008D1030008D103000810
:10008000D1030008D1030008D1030008D103000800
:1000900069030008D1030008D1030008D103000858
:1000A000D1030008D1030008D1030008D1030008E0
:1000B000D1030008D1030008D1030008D1030008D0
:1000C000D1030008D1030008D1030008D1030008C0
:1000D000D1030008D1030008D1030008D1030008B0
:1000E000D1030008D1030008D1030008000000007C
:1000F0000000000000000000000000000000000000
:0C01000000000000000000005FF808F1A3
:10010C0010B5054C237833B9044B13B10448AFF345
:10011C0000800123237010BD8C0100200000000022
:10012C001874000808B5034B1BB103490348AFF31F
:10013C00008008BD00000000900100201874000829
:10014C0080B582B000AF78600B467B807B88194607
:10015C00786806F051FD00BF0837BD4680BD000031
:10016C0080B500AF064800F02EF900F041F900F020
:10017C0009F800F063F806F077FC0023184680BD00
:10018C00A801002080B594B000AF07F12803282205
:10019C000021184607F00EF907F1140300221A602B
:1001AC005A609A60DA601A613B1D00221A605A602C
:1001BC009A60DA600123BB624FF48033FB62002348
:1001CC003B630123BB6302237B644FF48033BB642A
:1001DC004FF48013FB6407F12803184601F0D8FF95
:1001EC000346002B01D000F055F80F237B6102234E
:1001FC00BB610023FB614FF480633B6200237B6295
:10020C0007F114030121184602F044FA0346002BAF
:10021C0001D000F03FF810237B604FF480033B616A
:10022C003B1D184602F092FB0346002B01D000F058
:10023C0031F800BF5037BD4680BD000080B483B09C
:10024C0000AF0E4B9B690D4A43F0200393610B4B9F
:10025C009B6903F020037B607B68084B9B69074A12
:10026C0043F004039361054B9B6903F004033B606B
:10027C003B6800BF0C37BD4680BC70470010024085
:10028C0080B483B000AF0346FB7100BF0C37BD4692
:10029C0080BC704780B400AF72B600BF00BFFDE7F2
:1002AC0080B485B000AF154B9B69144A43F0010331
:1002BC009361124B9B6903F00103BB60BB680F4B4E
:1002CC00DB690E4A43F08053D3610C4BDB6903F0BE
:1002DC0080537B607B680A4B5B68FB60FB6823F098
:1002EC00E063FB60FB6843F00073FB60044AFB684F
:1002FC00536000BF1437BD4680BC704700100240ED
:10030C000000014080B400AF00BFFDE780B400AF37
:10031C0000BFFDE780B400AF00BFFDE780B400AFC5
:10032C0000BFFDE780B400AF00BFFDE780B400AFB5
:10033C0000BFBD4680BC704780B400AF00BFBD4657
:10034C0080BC704780B400AF00BFBD4680BC704716
:10035C0080B500AF00F092F800BF80BD80B500AF53
:10036C00024800F0D0FA00BF80BD00BF440F00204F
:10037C0080B400AF00BFBD4680BC7047FFF7F8FFEC
:10038C000B480C490C4A002302E0D458C4500433E7
:10039C00C4188C42F9D3094A094C002301E01360BC
:1003AC000432A242FBD307F00DF8FFF7D9FE7047D9
:1003BC00000000208C010020A47400088C01002097
:1003CC003C140020FEE780B483B000AF78607B68FB
:1003DC000022A3F8C8207B680022A3F8CA207B68FF
:1003EC000022A3F8CC2000BF0C37BD4680BC704760
:1003FC0080B500AF084B1B68074A43F0100313602D
:10040C00032000F023F90F2000F008F8FFF748FF55
:10041C000023184680BD00BF0020024080B582B08A
:10042C0000AF7860124B1A68124B1B7819464FF4C8
:10043C007A73B3FBF1F3B2FBF3F3184600F03BF91C
:10044C000346002B01D001230EE07B680F2B0AD84A
:10045C00002279684FF0FF3000F003F9064A7B6800
:10046C001360002300E0012318460837BD4680BD09
:10047C0010000020180000201400002080B400AFF1
:10048C00054B1B781A46054B1B681344034A136033
:10049C0000BFBD4680BC70471800002078020020C9
:1004AC0080B400AF024B1B681846BD4680BC704739
:1004BC007802002080B485B000AF78607B6803F0D0
:1004CC000703FB600C4BDB68BB60BA684FF6FF039D
:1004DC001340BB60FB681A02BB68134343F0BF6355
:1004EC0043F40033BB60044ABB68D36000BF1437CD
:1004FC00BD4680BC704700BF00ED00E080B400AF8B
:10050C00044BDB681B0A03F007031846BD4680BC8E
:10051C00704700BF00ED00E080B483B000AF03462D
:10052C00FB7197F90730002B0BDBFB7903F01F02F3
:10053C00064997F907305B09012000FA02F241F8ED
:10054C00232000BF0C37BD4680BC704700E100E0A3
:10055C0080B483B000AF03463960FB7197F9073064
:10056C00002B0ADB3B68DAB20C4997F90730120111
:10057C00D2B20B4483F800230AE03B68DAB2084994
:10058C00FB7903F00F03043B1201D2B20B441A7631
:10059C0000BF0C37BD4680BC704700BF00E100E0D7
:1005AC0000ED00E080B489B000AFF860B9607A600B
:1005BC00FB6803F00703FB61FB69C3F10703042B22
:1005CC0028BF0423BB61FB690433062B02D9FB69EA
:1005DC00033B00E000237B614FF0FF32BB6902FA62
:1005EC0003F3DA43BB681A407B699A404FF0FF3142
:1005FC007B6901FA03F3D9437B680B40134318461C
:10060C002437BD4680BC704780B582B000AF78609F
:10061C007B68013BB3F1807F01D301230FE00A4AD1
:10062C007B68013B53600F214FF0FF30FFF790FFC9
:10063C00054B00229A60044B07221A6000231846CF
:10064C000837BD4680BD00BF10E000E080B582B029
:10065C0000AF78607868FFF72DFF00BF0837BD4604
:10066C0080BD80B586B000AF0346B9607A60FB737D
:10067C0000237B61FFF742FF78617A68B96878697B
:10068C00FFF790FF024697F90F3011461846FFF717
:10069C005FFF00BF1837BD4680BD80B582B000AF8C
:1006AC000346FB7197F907301846FFF735FF00BF7B
:1006BC000837BD4680BD80B582B000AF78607868E1
:1006CC00FFF7A2FF034618460837BD4680BD80B52C
:1006DC0084B000AF78607B68002B01D10123E8E087
:1006EC007B6893F89132DBB2002B06D17B68002239
:1006FC0083F89022786806F0B3FB7B68032283F8BA
:10070C0091227B6800225A717B681B68184602F0A4
:10071C00F6F97B6818687B6804330ECB02F0CCF9D1
:10072C000346002B05D07B68022283F8912201231B
:10073C00BFE07B681B680021184602F0FAF90346FB
:10074C00002B05D07B68022283F891220123B0E0B4
:10075C000023FB733EE0FA7B796813469B0013443D
:10076C00DB000B44113301221A70FA7B79681346B3
:10077C009B001344DB000B441033FA7B1A70FA7B9A
:10078C00796813469B001344DB000B44133300229F
:10079C001A70FA7B796813469B001344DB000B44F8
:1007AC00203300221A60FA7B796813469B001344AD
:1007BC00DB000B44243300221A60FB7B79685A1C43
:1007CC0013469B001344DB000B4400221A60FB7B96
:1007DC000133FB737B681B79FA7B9A42BBD30023F2
:1007EC00FB7344E0FA7B796813469B001344DB00EF
:1007FC000B4403F2511300221A70FA7B79681346EA
:10080C009B001344DB000B4403F5A873FA7B1A70AE
:10081C00FA7B796813469B001344DB000B4403F20C
:10082C00531300221A70FA7B796813469B00134409
:10083C00DB000B4403F5B07300221A60FA7B796875
:10084C0013469B001344DB000B4403F5B2730022E8
:10085C001A60FA7B796813469B001344DB000B4447
:10086C0003F5B47300221A60FB7B0133FB737B68C6
:10087C001B79FA7B9A42B5D37B6818687B68043382
:10088C000ECB02F062F90346002B05D07B680222E6
:10089C0083F8912201230CE07B6800225A737B6859
:1008AC00012283F891227B681B68184604F0E1FB57
:1008BC00002318461037BD4680BD80B582B000AF0E
:1008CC0078607B6893F89032012B01D1022316E0FB
:1008DC007B68012283F890227B681B68184602F023
:1008EC00F8F80121786806F02EFD7B681B68184625
:1008FC0004F0B5FB7B68002283F890220023184695
:10090C000837BD4680BD80B588B000AF78607B6885
:10091C001B68184604F0B7FBB861BB6903F40043CD
:10092C00002B03D0786800F01AFB19E1BB6903F4C3
:10093C008063002B13D07B681B68B3F844309AB2E9
:10094C007B681B6822F4806292B2A3F8442078681A
:10095C0006F001FB0021786800F005F900E1BB69A5
:10096C0003F48043002B0CD07B681B68B3F8443035
:10097C009AB27B681B6822F4804292B2A3F844209E
:10098C00EEE0BB6903F40053002B0CD07B681B68B2
:10099C00B3F844309AB27B681B6822F4005292B2CE
:1009AC00A3F84420DCE0BB6903F48053002B27D070
:1009BC007B681B68B3F840309AB27B681B6822F0E6
:1009CC00040292B2A3F840207B681B68B3F8403055
:1009DC009AB27B681B6822F0080292B2A3F84020FE
:1009EC00786806F0F1FA7B681B68B3F844309AB269
:1009FC007B681B6822F4805292B2A3F84420AFE0CB
:100A0C00BB6903F40063002B00F083800023FB77A9
:100A1C0010E07B681B681A46FB7F9B001A44FB7F27
:100A2C00128892B25B0020333B4423F8182CFB7FD6
:100A3C000133FB77FB7F072BEBD97B681B68B3F883
:100A4C0040309AB27B681B6842F0010292B2A3F864
:100A5C0040207B681B68B3F840309AB27B681B68F7
:100A6C0022F0010292B2A3F8402000BF7B681B6801
:100A7C00B3F844309BB203F48063002BF6D07B6850
:100A8C001B68B3F844309AB27B681B6822F480620E
:100A9C0092B2A3F844200023FB770FE0FB7F7A6827
:100AAC0012681146FA7F92000A445B0020333B44E3
:100ABC0033F8183C1380FB7F0133FB77FB7F072B4C
:100ACC00ECD97B681B68B3F840309AB27B681B6822
:100ADC0042F0080292B2A3F840207B681B68B3F87E
:100AEC0044309AB27B681B6822F4006292B2A3F87D
:100AFC0044207B681B68B3F840309AB27B681B6853
:100B0C0042F0040292B2A3F84020786806F042FA50
:100B1C0026E0BB6903F40073002B0FD07B681B68C5
:100B2C00B3F844309AB27B681B6822F4007292B21C
:100B3C00A3F84420786806F000FA11E0BB6903F4CE
:100B4C008073002B0CD07B681B68B3F844309AB2CE
:100B5C007B681B6822F4807292B2A3F8442000BF19
:100B6C002037BD4680BD80B582B000AF78600B46A3
:100B7C00FB707B6893F89032012B01D1022312E0B9
:100B8C007B68012283F890227B68FA785A737B6821
:100B9C001B68FA781146184604F04EFA7B6800225E
:100BAC0083F89022002318460837BD4680BD80B5D7
:100BBC0084B000AF7860084611461A460346FB70B5
:100BCC000B463B801346BB700023FB7297F9033036
:100BDC00002B0EDAFB7803F0070213469B0013443C
:100BEC00DB0010337A681344FB60FB6801225A70F7
:100BFC000EE0FB7803F0070213469B001344DB0066
:100C0C0003F5A8737A681344FB60FB6800225A70E2
:100C1C00FB7803F00703DAB2FB681A703A88FB68BA
:100C2C001A61FB68BA78DA70BB78022B02D1FB68C8
:100C3C0000221A717B6893F89032012B01D10223A8
:100C4C000EE07B68012283F890227B681B68F968B0
:100C5C00184601F097FF7B68002283F89022FB7AFC
:100C6C0018461037BD4680BD80B584B000AF7860A3
:100C7C000B46FB7097F90330002B0EDAFB7803F070
:100C8C00070213469B001344DB0010337A681344AD
:100C9C00FB60FB6801225A700EE0FB7803F0070240
:100CAC0013469B001344DB0003F5A8737A681344C6
:100CBC00FB60FB6800225A70FB7803F00703DAB282
:100CCC00FB681A707B6893F89032012B01D10223D8
:100CDC000EE07B68012283F890227B681B68F96820
:100CEC00184602F00FFB7B68002283F89022002349
:100CFC0018461037BD4680BD80B586B000AFF86091
:100D0C007A603B600B46FB72FB7A03F007021346DA
:100D1C009B001344DB0003F5A873FA6813447B6152
:100D2C007B697A685A617B693A689A617B690022AF
:100D3C00DA617B6900225A70FB7A03F00703DAB29E
:100D4C007B691A70FB681B687969184602F0C6FC4F
:100D5C00002318461837BD4680BD80B483B000AF61
:100D6C0078600B46FB70FB7803F00702796813463A
:100D7C009B001344DB000B4403F5B6731B68184649
:100D8C000C37BD4680BC704780B586B000AFF860AC
:100D9C007A603B600B46FB72FB7A03F0070213464A
:100DAC009B001344DB001033FA6813447B617B69AE
:100DBC007A685A617B693A689A617B69012283F887
:100DCC0024207B693A681A627B690022DA617B69AC
:100DDC0001225A70FB7A03F00703DAB27B691A70AE
:100DEC00FB681B687969184602F078FC00231846EA
:100DFC001837BD4680BD80B584B000AF78600B4617
:100E0C00FB70FB7803F007037A681279934201D9DF
:100E1C0001234CE097F90330002B0EDAFB7803F03A
:100E2C00070213469B001344DB0010337A6813440B
:100E3C00FB60FB6801225A700CE0FA7813469B00A9
:100E4C001344DB0003F5A8737A681344FB60FB685A
:100E5C0000225A70FB6801229A70FB7803F007039A
:100E6C00DAB2FB681A707B6893F89032012B01D1CF
:100E7C0002231CE07B68012283F890227B681B68AC
:100E8C00F968184603F0DBFFFB7803F00703002B2F
:100E9C0008D17B681A687B6803F5267319461046DF
:100EAC0004F000F97B68002283F890220023184696
:100EBC001037BD4680BD80B584B000AF78600B465E
:100ECC00FB70FB7803F00F037A681279934201D917
:100EDC00012340E097F90330002B0EDAFB7803F086
:100EEC00070213469B001344DB0010337A6813444B
:100EFC00FB60FB6801225A700EE0FB7803F00702DE
:100F0C0013469B001344DB0003F5A8737A68134463
:100F1C00FB60FB6800225A70FB6800229A70FB7819
:100F2C0003F00703DAB2FB681A707B6893F890320F
:100F3C00012B01D102230EE07B68012283F8902261
:100F4C007B681B68F968184603F0C9FF7B680022B0
:100F5C0083F89022002318461037BD4680BD80B51B
:100F6C0096B000AF7860BBE37B681B68B3F8443085
:100F7C00A7F84E30B7F84E30DBB203F00F0387F80A
:100F8C004D3097F84D30002B40F07581B7F84E304E
:100F9C0003F01003002B4ED17B681B681B889BB29F
:100FAC0023F4E14323F07003FB817B681A68FB890F
:100FBC006FEA43436FEA53439BB213807B68103351
:100FCC007B657B681B68B3F850309BB21A467B6D0F
:100FDC001B78DB00134402335B007A6812681344FD
:100FEC0003F580631B88C3F309027B6DDA617B6DAB
:100FFC005A697B6DDB691A447B6D5A6100217868F4
:10100C0005F081FF7B685B7BDBB2002B00F0688313
:10101C007B6D9B69002B40F063837B685B7BDBB251
:10102C0063F07F03DAB27B681B68A3F84C207B6803
:10103C0000225A7354E37B6803F5A8737B657B68C5
:10104C001B681B88A7F84A30B7F84A3003F40063D2
:10105C00002B34D07B681B68B3F850309BB21A4617
:10106C007B6D1B78DB00134406335B007A681268D7
:10107C00134403F580631B88C3F309027B6DDA61AB
:10108C007B6818687B6803F526717B6DDA887B6D4D
:10109C00DB699BB204F056F87B681B681B889AB21C
:1010AC0040F68F7313403B827B681B683A8A42F090
:1010BC00800292B21A80786805F0F8FE10E3B7F956
:1010CC004A30002B80F20C837B681B681B889AB219
:1010DC0040F68F731340FB837B681B68FA8B42F0DE
:1010EC00800292B21A807B681B68B3F850309BB2B6
:1010FC001A467B6D1B78DB00134406335B007A6861
:10110C001268134403F580631B88C3F309027B6DDB
:10111C00DA617B6DDB69002B19D07B6D5B69002B71
:10112C0015D07B6818687B6D59697B6DDA887B6D8F
:10113C00DB699BB204F006F87B6D5A697B6DDB6949
:10114C001A447B6D5A610021786805F0C1FE7B68FA
:10115C001B681B88A7F84A30B7F84A3003F40063C1
:10116C00002B40F0BD82B7F84A3003F44053B3F57E
:10117C00405F00F0B5827B681B68BB617B681B68B5
:10118C00B3F850309BB21A46BB691344BB61BB69C0
:10119C0003F20C437B617B691B889BB2C3F309038D
:1011AC009AB27B691A807B6D1B693E2B1DD97B6DB6
:1011BC001B695B097B647B6D1B6903F01F03002BB0
:1011CC0002D17B6C013B7B647B691B889AB27B6C84
:1011DC009BB29B029BB213439BB26FEA43436FEAF1
:1011EC0053439AB27B691A8026E07B6D1B69002BF6
:1011FC000AD17B691B889BB26FEA43436FEA534366
:10120C009AB27B691A8017E07B6D1B695B087B6463
:10121C007B6D1B6903F00103002B02D07B6C013347
:10122C007B647B691B889AB27B6C9BB29B029BB2E2
:10123C0013439AB27B691A807B681B681B889BB22C
:10124C0023F4804323F070037B827B8A83F48053E6
:10125C007B827B8A83F400537B827B681A687B8A4F
:10126C0043F07F4343F47F0343F4004343F0800394
:10127C009BB2138034E27B681B681A4697F84D309A
:10128C009B0013441B88A7F84A30B7F94A30002B4F
:10129C0080F2FC807B681B681A4697F84D309B00E7
:1012AC0013441B889AB240F68F731340A7F848304A
:1012BC007B681B681A4697F84D309B001344B7F8AF
:1012CC00482042F0800292B21A8097F84D201346C3
:1012DC009B001344DB0003F5A8737A6813447B6509
:1012EC007B6D1B7B002B25D17B681B68B3F85030C2
:1012FC009BB21A467B6D1B78DB00134406335B00F4
:10130C007A681268134403F580631B88C3F30903DE
:10131C00A7F85030B7F85030002B00F092807B6863
:10132C0018687B6D59697B6DDA88B7F8503003F01B
:10133C0009FF86E07B6DDB78022B0AD1B7F84A30C7
:10134C001A46796D786800F0D9F90346A7F8503041
:10135C0077E07B681B681A467B6D1B789B001344F7
:10136C001B889BB223F4E04323F07003A7F85230A0
:10137C007B681B681A467B6D1B789B001A44B7F878
:10138C00523043F07F4343F47F0343F4004343F074
:10139C00C0039BB213807B681B681A467B6D1B785D
:1013AC009B0013441B889BB203F48043002B24D076
:1013BC007B681B68B3F850309BB21A467B6D1B7868
:1013CC00DB00134402335B007A681268134403F5A4
:1013DC0080631B88C3F30903A7F85030B7F850306B
:1013EC00002B2ED07B6818687B6D59697B6D1A8930
:1013FC00B7F8503003F0A6FE23E07B681B68B3F807
:10140C0050309BB21A467B6D1B78DB0013440633BD
:10141C005B007A681268134403F580631B88C3F37E
:10142C000903A7F85030B7F85030002B09D07B686F
:10143C0018687B6D59697B6D5A89B7F8503003F089
:10144C0081FE7B6DDA69B7F850301A447B6DDA6136
:10145C007B6D5A69B7F850301A447B6D5A617B6DBD
:10146C009B69002B05D0B7F850207B6D1B699A4205
:10147C0006D27B6D1B781946786805F029FD05E0CE
:10148C007B681B68796D184602F028F9B7F84A306A
:10149C0003F08003002B00F0238197F84D201346B6
:1014AC009B001344DB0010337A6813447B657B6824
:1014BC001B681A4697F84D309B0013441B889BB24F
:1014CC0023F4E14323F07003A7F842307B681B68D8
:1014DC001A4697F84D309B001A44B7F842306FEA21
:1014EC0043436FEA53439BB213807B6DDB78012B34
:1014FC0040F0A2807B6D00229A617B6D1B7B002BE0
:10150C0000F09380B7F84A3003F04003002B46D02C
:10151C007B6D5B78002B26D17B681B687B627B68BC
:10152C001B68B3F850309BB21A467B6A13447B623B
:10153C007B6D1B781A017B6A134403F204433B62F4
:10154C003B6A1B889BB2C3F309039AB23B6A1A80AD
:10155C003B6A1B889BB26FEA43436FEA53439AB2D0
:10156C003B6A1A8061E07B6D5B78012B5DD17B68F7
:10157C001B68FB627B681B68B3F850309BB21A4641
:10158C00FB6A1344FB627B6D1B781A01FB6A1344E4
:10159C0003F20443BB62BB6A00221A8045E07B68FD
:1015AC001B68FB637B6D5B78002B26D17B681B680B
:1015BC007B637B681B68B3F850309BB21A467B6B1D
:1015CC0013447B637B6D1B781A017B6B134403F212
:1015DC000C433B633B6B1B889BB2C3F309039AB26E
:1015EC003B6B1A803B6B1B889BB26FEA43436FEAE1
:1015FC0053439AB23B6B1A8017E07B6D5B78012BDF
:10160C0013D17B681B68B3F850309BB21A46FB6B46
:10161C001344FB637B6D1B781A01FB6B134403F2C1
:10162C000C43BB63BB6B00221A807B6D1B78194685
:10163C00786805F068FC53E0B7F84A3003F480731F
:10164C00002B46D17B681B68B3F850309BB21A460E
:10165C007B6D1B78DB00134402335B007A681268E5
:10166C00134403F580631B88C3F30903A7F84030C8
:10167C007B6D9A69B7F840309A4207D97B6D9A69AD
:10168C00B7F84030D21A7B6D9A6102E07B6D002274
:10169C009A617B6D9B69002B06D17B6D1B7819467B
:1016AC00786805F030FC1BE07B6D5A69B7F8403068
:1016BC001A447B6D5A617B6DDA69B7F840301A4475
:1016CC007B6DDA617B681B68796D184602F006F851
:1016DC0006E0B7F84A301A46796D786800F01BF9C5
:1016EC007B681B68B3F844309BB21BB2002BFFF62F
:1016FC003BAC002318465837BD4680BD80B588B03A
:10170C0000AFF860B9601346FB80FB8803F480439C
:10171C00002B7ED0FB681B68B3F850309BB21A4686
:10172C00BB681B78DB00134402335B00FA68126859
:10173C00134403F580631B88C3F309037B83BB68E5
:10174C009A697B8B9A4206D3BB689A697B8BD21AB7
:10175C00BB689A6102E0BB6800229A61BB689B6916
:10176C00002B23D1FB681B681A46BB681B789B00B7
:10177C0013441B889BB223F4804323F070033B83F8
:10178C003B8B83F400533B83FB681B681A46BB6896
:10179C001B789B001A443B8B43F07F4343F47F033D
:1017AC0043F4004343F080039BB21380FB8803F0A7
:1017BC004003002B1FD0FB681B681A46BB681B78C4
:1017CC009B0013441B889BB223F4E04323F070036B
:1017DC00FB82FB681B681A46BB681B789B001A448B
:1017EC00FB8A43F07F4343F47F0343F4004343F00D
:1017FC00C0039BB213807B8B002B00F08780FB68AF
:10180C001868BB685969BB681A897B8B03F09AFC12
:10181C007CE0FB681B68B3F850309BB21A46BB687F
:10182C001B78DB00134406335B00FA681268134420
:10183C0003F580631B88C3F309037B83BB689A6938
:10184C007B8B9A4206D3BB689A697B8BD21ABB6896
:10185C009A6102E0BB6800229A61BB689B69002B0D
:10186C0023D1FB681B681A46BB681B789B0013448A
:10187C001B889BB223F4804323F07003FB83FB8B08
:10188C0083F40053FB83FB681B681A46BB681B7808
:10189C009B001A44FB8B43F07F4343F47F0343F4D8
:1018AC00004343F080039BB21380FB8803F040039A
:1018BC00002B1FD1FB681B681A46BB681B789B006A
:1018CC0013441B889BB223F4E04323F07003BB83C7
:1018DC00FB681B681A46BB681B789B001A44BB8BC1
:1018EC0043F07F4343F47F0343F4004343F0C003CE
:1018FC009BB213807B8B002B08D0FB681868BB68ED
:10190C005969BB685A897B8B03F01CFC7B8B18468E
:10191C002037BD4680BD80B5A4B000AFF860B9607B
:10192C001346FB80FB8803F04003002B00F0DD81A5
:10193C00FB681B68B3F850309BB21A46BB681B7827
:10194C00DB00134402335B00FA681268134403F59E
:10195C0080631B88C3F30903A7F88630BB689A69B8
:10196C00B7F886309A4207D9BB689A69B7F88630BF
:10197C00D21ABB689A6102E0BB6800229A61BB680C
:10198C009B69002B40F0B980BB685B78002B26D19B
:10199C00FB681B68FB62FB681B68B3F850309BB29A
:1019AC001A46FB6A1344FB62BB681B781A01FB6A7C
:1019BC00134403F20443BB62BB6A1B889BB2C3F3A0
:1019CC0009039AB2BB6A1A80BB6A1B889BB26FEA86
:1019DC0043436FEA53439AB2BB6A1A801AE0BB685E
:1019EC005B78012B16D1FB681B687B63FB681B685B
:1019FC00B3F850309BB21A467B6B13447B63BB68C5
:101A0C001B781A017B6B134403F204433B633B6B5F
:101A1C0000221A80FB681B687B62BB685B78002B1A
:101A2C0026D1FB681B68FB61FB681B68B3F8503060
:101A3C009BB21A46FB691344FB61BB681B781A0105
:101A4C00FB69134403F20C43BB61BB691B889BB25B
:101A5C00C3F309039AB2BB691A80BB691B889BB29A
:101A6C006FEA43436FEA53439AB2BB691A8017E09B
:101A7C00BB685B78012B13D1FB681B68B3F8503043
:101A8C009BB21A467B6A13447B62BB681B781A01B3
:101A9C007B6A134403F20C433B623B6A00221A80BC
:101AAC00BB681B781946F86805F02DFAFB8803F41F
:101ABC008043002B00F0FC82FB681B681A46BB6855
:101ACC001B789B0013441B889BB223F4E04323F048
:101ADC007003FB82FB681B681A46BB681B789B0073
:101AEC001A44FB8A43F07F4343F47F0343F440439F
:101AFC0043F080039BB21380DAE2FB8803F480434B
:101B0C00002B21D0FB681B681A46BB681B789B0016
:101B1C0013441B889BB223F4E04323F07003A7F813
:101B2C008A30FB681B681A46BB681B789B001A44FA
:101B3C00B7F88A3043F07F4343F47F0343F44043C8
:101B4C0043F080039BB21380BB6893F82430012BC5
:101B5C0040F0AE82BB685A69B7F886301A44BB684D
:101B6C005A61BB68DA69B7F886301A44BB68DA6127
:101B7C00BB681A6ABB681B699A420BD3BB681B69AA
:101B8C00C7F88C30BB681A6AD7F88C30D21ABB688D
:101B9C001A6217E0BB681B6A002B08D1B7F88630B5
:101BAC00C7F88C30BB68002283F824200AE0BB689D
:101BBC00002283F82420BB681B6AC7F88C30BB68F2
:101BCC0000221A62BB685B78002B65D1FB681B682E
:101BDC00FB63FB681B68B3F850309BB21A46FB6B77
:101BEC001344FB63BB681B781A01FB6B134403F2B1
:101BFC000443BB63BB6B1B889BB2C3F309039AB250
:101C0C00BB6B1A80D7F88C303E2B1DD9D7F88C3093
:101C1C005B09BB64D7F88C3003F01F03002B02D197
:101C2C00BB6C013BBB64BB6B1B889AB2BB6C9BB29D
:101C3C009B029BB213439BB26FEA43436FEA53433D
:101C4C009AB2BB6B1A8044E0D7F88C30002B0AD1C7
:101C5C00BB6B1B889BB26FEA43436FEA53439AB248
:101C6C00BB6B1A8035E0D7F88C305B08BB64D7F8B7
:101C7C008C3003F00103002B02D0BB6C0133BB642E
:101C8C00BB6B1B889AB2BB6C9BB29B029BB213437F
:101C9C009AB2BB6B1A801CE0BB685B78012B18D125
:101CAC00FB681B687B64FB681B68B3F850309BB205
:101CBC001A467B6C13447B64BB681B781A017B6CE3
:101CCC00134403F204433B64D7F88C309AB23B6C58
:101CDC001A80FB681868BB685969BB681A89D7F801
:101CEC008C309BB203F0E9F9E2E1FB681B68B3F8B6
:101CFC0050309BB21A46BB681B78DB00134406338A
:101D0C005B00FA681268134403F580631B88C3F305
:101D1C000903A7F88630BB689A69B7F886309A42EF
:101D2C0007D3BB689A69B7F88630D21ABB689A6138
:101D3C0002E0BB6800229A61BB689B69002B40F0F3
:101D4C00C080BB685B78002B26D1FB681B68FB67E7
:101D5C00FB681B68B3F850309BB21A46FB6F1344F8
:101D6C00FB67BB681B781A01FB6F134403F2044337
:101D7C00BB67BB6F1B889BB2C3F309039AB2BB6FE3
:101D8C001A80BB6F1B889BB26FEA43436FEA5343C5
:101D9C009AB2BB6F1A801AE0BB685B78012B16D124
:101DAC00FB681B687B66FB681B68B3F850309BB202
:101DBC001A467B6E13447B66BB681B781A017B6EDC
:101DCC00134403F204433B663B6E00221A80FB680B
:101DDC001B687B67BB685B78002B2BD1FB681B688F
:101DEC00FB66FB681B68B3F850309BB21A46FB6E5F
:101DFC001344FB66BB681B781A01FB6E134403F299
:101E0C000C43C7F88030D7F880301B889BB2C3F3E3
:101E1C0009039AB2D7F880301A80D7F880301B8823
:101E2C009BB26FEA43436FEA53439AB2D7F88030C0
:101E3C001A8017E0BB685B78012B13D1FB681B6819
:101E4C00B3F850309BB21A467B6F13447B67BB6868
:101E5C001B781A017B6F134403F20C433B673B6FF7
:101E6C0000221A80BB681B781946F86805F04BF8FD
:101E7C00FB8803F48043002B40F01A81FB681B683D
:101E8C001A46BB681B789B0013441B889BB223F437
:101E9C00E04323F07003A7F88830FB681B681A46F0
:101EAC00BB681B789B001A44B7F8883043F07F431B
:101EBC0043F47F0343F4404343F080039BB213800D
:101ECC00F6E0FB8803F48043002B21D1FB681B68F0
:101EDC001A46BB681B789B0013441B889BB223F4E7
:101EEC00E04323F07003A7F84E30FB681B681A46DA
:101EFC00BB681B789B001A44B7F84E3043F07F4305
:101F0C0043F47F0343F4404343F080039BB21380BC
:101F1C00BB6893F82430012B40F0CA80BB685A6927
:101F2C00B7F886301A44BB685A61BB68DA69B7F8EF
:101F3C0086301A44BB68DA61BB681A6ABB681B69D5
:101F4C009A420BD3BB681B69C7F88C30BB681A6A02
:101F5C00D7F88C30D21ABB681A6217E0BB681B6AC0
:101F6C00002B08D1B7F88630C7F88C30BB6800223C
:101F7C0083F824200AE0BB681B6AC7F88C30BB6866
:101F8C0000221A62BB68002283F82420FB681B68BD
:101F9C007B65BB685B78002B65D1FB681B68FB65B8
:101FAC00FB681B68B3F850309BB21A46FB6D1344A8
:101FBC00FB65BB681B781A01FB6D134403F20C43E1
:101FCC00BB65BB6D1B889BB2C3F309039AB2BB6D97
:101FDC001A80D7F88C303E2B1DD9D7F88C305B0982
:101FEC00BB66D7F88C3003F01F03002B02D1BB6EFD
:101FFC00013BBB66BB6D1B889AB2BB6E9BB29B024E
:10200C009BB213439BB26FEA43436FEA53439AB2BA
:10201C00BB6D1A8041E0D7F88C30002B0AD1BB6D18
:10202C001B889BB26FEA43436FEA53439AB2BB6D72
:10203C001A8032E0D7F88C305B08BB66D7F88C304E
:10204C0003F00103002B02D0BB6E0133BB66BB6DEA
:10205C001B889AB2BB6E9BB29B029BB213439AB283
:10206C00BB6D1A8019E0BB685B78012B15D1FB683E
:10207C001B68B3F850309BB21A467B6D13447B65DA
:10208C00BB681B781A017B6D134403F20C433B6550
:10209C00D7F88C309AB23B6D1A80FB681868BB6815
:1020AC005969BB685A89D7F88C309BB203F005F894
:1020BC00FB681B681A46BB681B789B0013441B8883
:1020CC009BB223F4E04323F04003BB82BB8A83F032
:1020DC001003BB82BB8A83F02003BB82FB681B68A6
:1020EC001A46BB681B789B001A44BB8A43F07F439B
:1020FC0043F47F0343F4004343F080039BB213800B
:10210C00002318469037BD4680BD80B487B000AF21
:10211C00F8607B600B467B8113463B817B8903F027
:10212C0080039BB2002B0BD07B8903F00702134674
:10213C009B001344DB001033FA6813447B6109E005
:10214C007A8913469B001344DB0003F5A873FA68E5
:10215C0013447B613B89002B07D17B6900221A73E6
:10216C007B689AB27B69DA800BE07B6901221A7377
:10217C007B689AB27B691A817B681B0C9AB27B696B
:10218C005A81002318461C37BD4680BC704700009E
:10219C0080B586B000AF78607B68002B01D101233D
:1021AC0072E27B681B6803F00103002B00F0878050
:1021BC00924B5B6803F00C03042B0CD08F4B5B68C9
:1021CC0003F00C03082B12D18C4B5B6803F48033A7
:1021DC00B3F5803F0BD1894B1B6803F40033002B04
:1021EC006CD07B685B68002B68D101234CE27B6868
:1021FC005B68B3F5803F06D1804B1B687F4A43F484
:10220C00803313602EE07B685B68002B0CD17B4B1A
:10221C001B687A4A23F480331360784B1B68774A27
:10222C0023F4802313601DE07B685B68B3F5A02F5B
:10223C000CD1724B1B68714A43F4802313606F4BB3
:10224C001B686E4A43F4803313600BE06B4B1B68C6
:10225C006A4A23F480331360684B1B68674A23F483
:10226C00802313607B685B68002B13D0FEF718F992
:10227C00386108E0FEF714F902463B69D31A642B67
:10228C0001D9032300E25D4B1B6803F40033002BE0
:10229C00F0D014E0FEF704F9386108E0FEF700F91D
:1022AC0002463B69D31A642B01D90323ECE1534B4F
:1022BC001B6803F40033002BF0D100E000BF7B68F7
:1022CC001B6803F00203002B63D04C4B5B6803F0DC
:1022DC000C03002B0BD0494B5B6803F00C03082B51
:1022EC001CD1464B5B6803F48033002B16D1434B57
:1022FC001B6803F00203002B05D07B681B69012BC4
:10230C0001D00123C0E13D4B1B6823F0F8027B6830
:10231C005B69DB00394913430B603AE07B681B694E
:10232C00002B20D0364B01221A60FEF7B9F8386129
:10233C0008E0FEF7B5F802463B69D31A022B01D927
:10234C000323A1E12D4B1B6803F00203002BF0D0FB
:10235C002A4B1B6823F0F8027B685B69DB0027497A
:10236C0013430B6015E0264B00221A60FEF798F819
:10237C00386108E0FEF794F802463B69D31A022B49
:10238C0001D9032380E11D4B1B6803F00203002BD2
:10239C00F0D17B681B6803F00803002B3AD07B68F4
:1023AC009B69002B19D0174B01221A60FEF778F8A5
:1023BC00386108E0FEF774F802463B69D31A022B29
:1023CC0001D9032360E10D4B5B6A03F00203002B80
:1023DC00F0D0012000F09CFA1CE00A4B00221A609D
:1023EC00FEF75EF838610FE0FEF75AF802463B69DB
:1023FC00D31A022B08D9032346E100BF0010024078
:10240C000000424280044242924B5B6A03F002039A
:10241C00002BE9D17B681B6803F00403002B00F050
:10242C00A6800023FB758B4BDB6903F08053002BDC
:10243C000DD1884BDB69874A43F08053D361854BC0
:10244C00DB6903F08053BB60BB680123FB75824BD7
:10245C001B6803F48073002B18D17F4B1B687E4ADA
:10246C0043F480731360FEF71BF8386108E0FEF745
:10247C0017F802463B69D31A642B01D9032303E1F5
:10248C00754B1B6803F48073002BF0D07B68DB6802
:10249C00012B06D16F4B1B6A6E4A43F0010313628A
:1024AC002DE07B68DB68002B0CD16A4B1B6A694AF8
:1024BC0023F001031362674B1B6A664A23F0040383
:1024CC0013621CE07B68DB68052B0CD1614B1B6A2B
:1024DC00604A43F0040313625E4B1B6A5D4A43F08F
:1024EC00010313620BE05B4B1B6A5A4A23F0010396
:1024FC001362584B1B6A574A23F0040313627B6820
:10250C00DB68002B15D0FDF7CBFF38610AE0FDF737
:10251C00C7FF02463B69D31A41F28832934201D974
:10252C000323B1E04B4B1B6A03F00203002BEED0EC
:10253C0014E0FDF7B5FF38610AE0FDF7B1FF024684
:10254C003B69D31A41F28832934201D903239BE0B1
:10255C00404B1B6A03F00203002BEED1FB7D012BD9
:10256C0005D13C4BDB693B4A23F08053D3617B683C
:10257C00DB69002B00F08780364B5B6803F00C03A3
:10258C00082B61D07B68DB69022B46D1334B0022D0
:10259C001A60FDF785FF386108E0FDF781FF024600
:1025AC003B69D31A022B01D903236DE0294B1B681D
:1025BC0003F00073002BF0D17B681B6AB3F5803FEE
:1025CC0008D1244B5B6823F400327B689B6821495B
:1025DC0013434B601F4B5B6823F474127B68196ABE
:1025EC007B685B6A0B431B4913434B601B4B0122FB
:1025FC001A60FDF755FF386108E0FDF751FF024600
:10260C003B69D31A022B01D903233DE0114B1B6804
:10261C0003F00073002BF0D035E0104B00221A6051
:10262C00FDF73EFF386108E0FDF73AFF02463B69D3
:10263C00D31A022B01D9032326E0064B1B6803F0A7
:10264C000073002BF0D11EE07B68DB69012B07D1F6
:10265C00012319E00010024000700040600042426B
:10266C000B4B5B68FB60FB6803F480327B681B6A76
:10267C009A4206D1FB6803F470127B685B6A9A423B
:10268C0001D0012300E0002318461837BD4680BD59
:10269C000010024080B584B000AF786039607B6870
:1026AC00002B01D10123D0E06A4B1B6803F0070318
:1026BC003A689A4210D9674B1B6823F007026549A8
:1026CC003B6813430B60634B1B6803F007033A68CA
:1026DC009A4201D00123B8E07B681B6803F0020327
:1026EC00002B20D07B681B6803F00403002B05D063
:1026FC00594B5B68584A43F4E06353607B681B6832
:10270C0003F00803002B05D0534B5B68524A43F48B
:10271C0060535360504B5B6823F0F0027B689B68FE
:10272C004D4913434B607B681B6803F00103002B7E
:10273C0040D07B685B68012B07D1474B1B6803F4C7
:10274C000033002B15D101237FE07B685B68022BE3
:10275C0007D1414B1B6803F00073002B09D10123F7
:10276C0073E03D4B1B6803F00203002B01D10123E6
:10277C006BE0394B5B6823F003027B685B6836497E
:10278C0013434B60FDF78CFEF8600AE0FDF788FE02
:10279C000246FB68D31A41F28832934201D90323D3
:1027AC0053E02D4B5B6803F00C027B685B689B006D
:1027BC009A42EBD1274B1B6803F007033A689A4205
:1027CC0010D2244B1B6823F0070222493B681343A9
:1027DC000B60204B1B6803F007033A689A4201D048
:1027EC00012332E07B681B6803F00403002B08D044
:1027FC00194B5B6823F4E0627B68DB681649134372
:10280C004B607B681B6803F00803002B09D0124B4C
:10281C005B6823F460527B681B69DB000E49134331
:10282C004B6000F021F802460B4B5B681B0903F070
:10283C000F030A49CB5C22FA03F3094A1360094BD4
:10284C001B681846FDF7EAFD002318461037BD46F5
:10285C0080BD00BF002002400010024078740008C8
:10286C00100000201400002080B487B000AF0023BB
:10287C00FB600023BB6000237B6100237B60002393
:10288C003B611E4B5B68FB60FB6803F00C03042B85
:10289C0002D0082B03D027E0194B3B6127E0FB68E3
:1028AC009B0C03F00F03174AD35C7B60FB6803F4AB
:1028BC008033002B10D0114B5B685B0C03F00103D1
:1028CC00114AD35CBB607B680D4A03FB02F2BB6808
:1028DC00B2FBF3F37B6104E07B680C4A02FB03F36D
:1028EC007B617B693B6102E0054B3B6100BF3B694F
:1028FC0018461C37BD4680BC704700BF0010024014
:10290C0000127A00887400089874000800093D00D1
:10291C0080B485B000AF78600A4B1B680A4AA2FBF2
:10292C0003235B0A7A6802FB03F3FB6000BFFB68BE
:10293C005A1EFA60002BF9D100BF00BF1437BD46F8
:10294C0080BC704710000020D34D621080B586B05B
:10295C0000AF786000233B610023FB607B681B6841
:10296C0003F00103002B7DD00023FB754F4BDB697B
:10297C0003F08053002B0DD14C4BDB694B4A43F0D9
:10298C008053D361494BDB6903F08053BB60BB6858
:10299C000123FB75464B1B6803F48073002B18D185
:1029AC00434B1B68424A43F480731360FDF778FD78
:1029BC00386108E0FDF774FD02463B69D31A642BBD
:1029CC0001D903236DE03A4B1B6803F48073002B91
:1029DC00F0D0364B1B6A03F44073FB60FB68002B92
:1029EC002ED07B685B6803F44073FA689A4227D058
:1029FC002E4B1B6A23F44073FB602E4B01221A6092
:102A0C002C4B00221A60294AFB681362FB6803F006
:102A1C000103002B14D0FDF743FD38610AE0FDF7EC
:102A2C003FFD02463B69D31A41F28832934201D9E9
:102A3C00032336E01D4B1B6A03F00203002BEED080
:102A4C001A4B1B6A23F440727B685B68174913436B
:102A5C000B62FB7D012B05D1144BDB69134A23F070
:102A6C008053D3617B681B6803F00203002B08D0F2
:102A7C000E4B5B6823F440427B689B680B49134305
:102A8C004B607B681B6803F01003002B08D0074BCE
:102A9C005B6823F480027B68DB68044913434B605A
:102AAC00002318461837BD4680BD00BF00100240F9
:102ABC00007000404004424280B485B000AFF86022
:102ACC00384680E80E00002318461437BD4680BCFB
:102ADC00704780B485B000AF78607B680022A3F8A3
:102AEC0044204FF43F43FB60FB689AB27B68A3F829
:102AFC004020002318461437BD4680BC704780B474
:102B0C0085B000AF78604FF43F43FB607B68B3F84F
:102B1C0040309AB2FB689BB2DB439BB213409AB233
:102B2C007B68A3F84020002318461437BD4680BCB0
:102B3C00704780B483B000AF78600B46FB70002305
:102B4C0018460C37BD4680BC704780B485B000AFCA
:102B5C00F860384680E80E00FB680122A3F840209C
:102B6C00FB680022A3F84020FB680022A3F8442055
:102B7C00FB680022A3F85020002318461437BD46EA
:102B8C0080BC704780B49DB000AF78603960002382
:102B9C0087F86F307A683B681B789B0013441B885E
:102BAC009BB223F4EC4323F07003A7F86C303B6822
:102BBC00DB78032B1FD801A252F823F0D92B000885
:102BCC00F52B00080B2C0008E72B0008B7F86C302D
:102BDC0043F40073A7F86C3012E0B7F86C3043F490
:102BEC00C063A7F86C300BE0B7F86C3043F480632B
:102BFC00A7F86C3004E0012387F86F3000E000BFC9
:102C0C007A683B681B789B001A44B7F86C3043F029
:102C1C007F4343F47F0343F4004343F080039BB2B0
:102C2C0013807A683B681B789B0013441B889BB20B
:102C3C0023F4E04323F070039BB23A6812781343F9
:102C4C00A7F866307A683B681B789B001A44B7F883
:102C5C00663043F07F4343F47F0343F4004343F077
:102C6C0080039BB213803B681B7B002B40F0788168
:102C7C003B685B78002B00F084807B68BB617B68D1
:102C8C00B3F850309BB21A46BB691344BB613B6826
:102C9C001B781A01BB69134403F580637B613B68A5
:102CAC00DB885B089BB25B009AB27B691A807A68FE
:102CBC003B681B789B0013441B887B827B8A03F048
:102CCC004003002B1BD07A683B681B789B00134495
:102CDC001B889BB223F4E04323F070033B827A6899
:102CEC003B681B789B001A443B8A43F07F4343F4B8
:102CFC007F0343F4004343F0C0039BB213803B6853
:102D0C00DB78012B20D07A683B681B789B0013443E
:102D1C001B889BB223F4E04323F04003BB81BB89A7
:102D2C0083F02003BB817A683B681B789B001A44B4
:102D3C00BB8943F07F4343F47F0343F4004343F0E8
:102D4C0080039BB21380D5E27A683B681B789B00AA
:102D5C0013441B889BB223F4E04323F04003FB8114
:102D6C007A683B681B789B001A44FB8943F07F43CD
:102D7C0043F47F0343F4004343F080039BB213807E
:102D8C00B8E27B683B637B68B3F850309BB21A4661
:102D9C003B6B13443B633B681B781A013B6B13443E
:102DAC0003F58163FB623B68DB885B089BB25B00CD
:102DBC009AB2FB6A1A807B68BB627B68B3F85030AE
:102DCC009BB21A46BB6A1344BB623B681B781A0160
:102DDC00BB6A134403F20C437B627B6A1B889BB275
:102DEC00C3F309039AB27B6A1A803B681B693E2BBA
:102DFC001DD93B681B695B09BB663B681B6903F00B
:102E0C001F03002B02D1BB6E013BBB667B6A1B8888
:102E1C009AB2BB6E9BB29B029BB213439BB26FEAFE
:102E2C0043436FEA53439AB27B6A1A8026E03B68AD
:102E3C001B69002B0AD17B6A1B889BB26FEA434348
:102E4C006FEA53439AB27B6A1A8017E03B681B699E
:102E5C005B08BB663B681B6903F00103002B02D0C7
:102E6C00BB6E0133BB667B6A1B889AB2BB6E9BB28E
:102E7C009B029BB213439AB27B6A1A807A683B68B6
:102E8C001B789B0013441B887B847B8C03F480434E
:102E9C00002B1BD07A683B681B789B0013441B8863
:102EAC009BB223F4E04323F070033B847A683B68C5
:102EBC001B789B001A443B8C43F07F4343F47F0305
:102ECC0043F4404343F080039BB213803B681B7870
:102EDC00002B24D17A683B681B789B0013441B8819
:102EEC009BB223F4804323F07003BB83BB8B83F42E
:102EFC008053BB83BB8B83F40053BB837A683B68E2
:102F0C001B789B001A44BB8B43F07F4343F47F0335
:102F1C0043F4004343F080039BB21380EAE17A68E8
:102F2C003B681B789B0013441B889BB223F48043A3
:102F3C0023F07003FB83FB8B83F40053FB837A68D1
:102F4C003B681B789B001A44FB8B43F07F4343F494
:102F5C007F0343F4004343F080039BB21380C9E129
:102F6C003B68DB78022B1ED17A683B681B789B0090
:102F7C0013441B889BB223F4E04323F07003A7F89F
:102F8C0062307A683B681B789B001A44B7F8623051
:102F9C0043F07F4343F47F0343F4014343F0800346
:102FAC009BB213801DE07A683B681B789B0013442E
:102FBC001B889BB223F4E24323F07003A7F8643020
:102FCC007A683B681B789B001A44B7F8643043F06E
:102FDC007F4343F47F0343F4004343F080039BB2ED
:102FEC0013807B68FB657B68B3F850309BB21A4644
:102FFC00FB6D1344FB653B681B781A01FB6D134496
:10300C0003F58063BB653B681B895B089BB25B0067
:10301C009AB2BB6D1A807B687B657B68B3F85030C5
:10302C009BB21A467B6D13447B653B681B781A0177
:10303C007B6D134403F581633B653B685B895B08DF
:10304C009BB25B009AB23B6D1A803B685B78002B9D
:10305C0040F093807A683B681B789B0013441B8874
:10306C00A7F84030B7F8403003F48043002B1BD056
:10307C007A683B681B789B0013441B889BB223F433
:10308C00E04323F07003FB877A683B681B789B0056
:10309C001A44FB8F43F07F4343F47F0343F44043D4
:1030AC0043F080039BB213807A683B681B789B00CB
:1030BC0013441B88BB87BB8F03F04003002B1BD032
:1030CC007A683B681B789B0013441B889BB223F4E3
:1030DC00E04323F070037B877A683B681B789B0086
:1030EC001A447B8F43F07F4343F47F0343F4004344
:1030FC0043F0C0039BB213807A683B681B789B003B
:10310C0013441B889BB223F4804323F070033B874A
:10311C003B8F83F480533B873B8F83F400533B8777
:10312C007A683B681B789B001A443B8F43F07F43C3
:10313C0043F47F0343F4004343F080039BB21380BA
:10314C007A683B681B789B0013441B889BB223F462
:10315C00E04323F04003FB867A683B681B789B00B6
:10316C001A44FB8E43F07F4343F47F0343F4004344
:10317C0043F080039BB21380BCE07A683B681B78F9
:10318C009B0013441B88A7F84E30B7F84E3003F45D
:10319C008043002B1DD07A683B681B789B0013443E
:1031AC001B889BB223F4E04323F07003A7F84C3048
:1031BC007A683B681B789B001A44B7F84C3043F094
:1031CC007F4343F47F0343F4404343F080039BB2BB
:1031DC0013807A683B681B789B0013441B88A7F804
:1031EC004A30B7F84A3003F04003002B1DD07A6800
:1031FC003B681B789B0013441B889BB223F4E04371
:10320C0023F07003A7F848307A683B681B789B0062
:10321C001A44B7F8483043F07F4343F47F0343F438
:10322C00004343F0C0039BB213803B68DB78012B57
:10323C0024D07A683B681B789B0013441B889BB294
:10324C0023F4E04323F04003A7F84430B7F84430AC
:10325C0083F02003A7F844307A683B681B789B0006
:10326C001A44B7F8443043F07F4343F47F0343F4EC
:10327C00004343F080039BB213801DE07A683B68E7
:10328C001B789B0013441B889BB223F4E04323F070
:10329C004003A7F846307A683B681B789B001A44B9
:1032AC00B7F8463043F07F4343F47F0343F40043C5
:1032BC0043F080039BB213807A683B681B789B00B9
:1032CC0013441B889BB223F4804323F07003A7F8AC
:1032DC0042307A683B681B789B001A44B7F842303E
:1032EC0043F07F4343F47F0343F4004343F08003F4
:1032FC009BB2138097F86F3018467437BD4680BC6C
:10330C00704700BF80B48DB000AF786039603B6807
:10331C001B7B002B40F08E803B685B78002B44D0ED
:10332C007A683B681B789B0013441B88BB81BB8964
:10333C0003F04003002B1BD07A683B681B789B0082
:10334C0013441B889BB223F4E04323F070037B816E
:10335C007A683B681B789B001A447B8943F07F4357
:10336C0043F47F0343F4004343F0C0039BB2138048
:10337C007A683B681B789B0013441B889BB223F430
:10338C00E04323F040033B817A683B681B789B0049
:10339C001A443B8943F07F4343F47F0343F40043D7
:1033AC0043F080039BB2138092E17A683B681B78F0
:1033BC009B0013441B887B827B8A03F48043002B85
:1033CC001BD07A683B681B789B0013441B889BB20C
:1033DC0023F4E04323F070033B827A683B681B784C
:1033EC009B001A443B8A43F07F4343F47F0343F42E
:1033FC00404343F080039BB213807A683B681B7890
:10340C009B0013441B889BB223F4804323F070036E
:10341C00FB817A683B681B789B001A44FB8943F05C
:10342C007F4343F47F0343F4004343F080039BB298
:10343C0013804DE13B685B78002B40F0A5807A68E7
:10344C003B681B789B0013441B883B843B8C03F428
:10345C008043002B1BD07A683B681B789B0013447D
:10346C001B889BB223F4E04323F07003FB837A6840
:10347C003B681B789B001A44FB8B43F07F4343F45F
:10348C007F0343F4404343F080039BB213807A687C
:10349C003B681B789B0013441B88BB83BB8B03F0DE
:1034AC004003002B1BD07A683B681B789B001344AD
:1034BC001B889BB223F4E04323F070037B837A6870
:1034CC003B681B789B001A447B8B43F07F4343F48F
:1034DC007F0343F4004343F0C0039BB213807A682C
:1034EC003B681B789B0013441B889BB223F4E0437E
:1034FC0023F070033B837A683B681B789B001A446B
:10350C003B8B43F07F4343F47F0343F4004343F08E
:10351C00C0039BB213807A683B681B789B001344F2
:10352C001B889BB223F4804323F07003FB827A68E0
:10353C003B681B789B001A44FB8A43F07F4343F49F
:10354C007F0343F4004343F080039BB213807A68FB
:10355C003B681B789B0013441B889BB223F4E0430D
:10356C0023F04003BB827A683B681B789B001A44AB
:10357C00BB8A43F07F4343F47F0343F4004343F09F
:10358C0080039BB21380A3E07A683B681B789B0096
:10359C0013441B88FB85FB8D03F48043002B1BD04D
:1035AC007A683B681B789B0013441B889BB223F4FE
:1035BC00E04323F07003BB857A683B681B789B0063
:1035CC001A44BB8D43F07F4343F47F0343F44043E1
:1035DC0043F080039BB213807A683B681B789B0096
:1035EC0013441B887B857B8D03F04003002B1BD081
:1035FC007A683B681B789B0013441B889BB223F4AE
:10360C00E04323F070033B857A683B681B789B0092
:10361C001A443B8D43F07F4343F47F0343F4004350
:10362C0043F0C0039BB213807A683B681B789B0005
:10363C0013441B889BB223F4E04323F07003FB84F8
:10364C007A683B681B789B001A44FB8C43F07F43E1
:10365C0043F47F0343F4404343F080039BB2138055
:10366C007A683B681B789B0013441B889BB223F43D
:10367C00E04323F04003BB847A683B681B789B00D3
:10368C001A44BB8C43F07F4343F47F0343F4004361
:10369C0043F080039BB213807A683B681B789B00D5
:1036AC0013441B889BB223F4804323F070037B8468
:1036BC007A683B681B789B001A447B8C43F07F43F1
:1036CC0043F47F0343F4004343F080039BB2138025
:1036DC00002318463437BD4680BC704780B5C2B055
:1036EC0000AF07F58473A3F58273186007F5847334
:1036FC00A3F58473196007F58473A3F584731B68B1
:10370C005B78012B40F0B78607F58473A3F58473BF
:10371C001B689A6907F58473A3F584731B681B698E
:10372C009A4208D907F58473A3F584731B681B6947
:10373C00C7F8043107E007F58473A3F584731B689D
:10374C009B69C7F8043107F58473A3F584731B6870
:10375C001B7B002B3AD107F58473A3F584731B688C
:10376C00596907F58473A3F584731B68DA88D7F855
:10377C0004319BB207F58470A0F58270006801F0EB
:10378C009CFC07F58473A3F582731B683B6107F5FA
:10379C008473A3F582731B68B3F850309BB21A463E
:1037AC003B6913443B6107F58473A3F584731B6871
:1037BC001B781A013B69134403F20443FB60D7F8EE
:1037CC0004319AB2FB681A8000F01FBE07F58473AF
:1037DC00A3F584731B68DB78022B40F0628407F539
:1037EC008473A3F584731B681A6A07F58473A3F5B5
:1037FC0084731B681B699A4240F2DF8307F584735C
:10380C00A3F582731A6807F58473A3F584731B6898
:10381C001B789B0013441B889BB223F4E04323F0DA
:10382C007003A7F8563007F58473A3F582731A68F2
:10383C0007F58473A3F584731B681B789B001A44EB
:10384C00B7F8563043F07F4343F47F0343F401430E
:10385C0043F080039BB2138007F58473A3F5847344
:10386C001B681A6AD7F80431D21A07F58473A3F5CA
:10387C0084731B681A6207F58473A3F582731A6844
:10388C0007F58473A3F584731B681B789B001344A2
:10389C001B889BB203F04003002B00F0C78107F597
:1038AC008473A3F582731B683B6307F58473A3F5DC
:1038BC0084731B685B78002B77D107F58473A3F5B1
:1038CC0082731B68BB6207F58473A3F582731B6854
:1038DC00B3F850309BB21A46BB6A1344BB6207F56F
:1038EC008473A3F584731B681B781A01BB6A134499
:1038FC0003F20C437B627B6A1B889BB2C3F3090304
:10390C009AB27B6A1A80D7F804313E2B21D9D7F8AA
:10391C0004315B09C7F80031D7F8043103F01F03F9
:10392C00002B04D1D7F80031013BC7F800317B6A7A
:10393C001B889AB2D7F800319BB29B029BB21343FF
:10394C009BB26FEA43436FEA53439AB27B6A1A8085
:10395C0050E0D7F80431002B0AD17B6A1B889BB24C
:10396C006FEA43436FEA53439AB27B6A1A8041E091
:10397C00D7F804315B08C7F80031D7F8043103F0ED
:10398C000103002B04D0D7F800310133C7F8003104
:10399C007B6A1B889AB2D7F800319BB29B029BB210
:1039AC0013439AB27B6A1A8024E007F58473A3F55B
:1039BC0084731B685B78012B1CD107F58473A3F50A
:1039CC0082731B68B3F850309BB21A463B6B13449E
:1039DC003B6307F58473A3F584731B681B781A018A
:1039EC003B6B134403F20C43FB62D7F804319AB2DD
:1039FC00FB6A1A8007F58473A3F584731B685B89D3
:103A0C00A7F8763007F58473A3F584731B6859699E
:103A1C00D7F804319BB2B7F8762007F58470A0F57F
:103A2C008270006801F049FB07F58473A3F5847379
:103A3C001B685A69D7F804311A4407F58473A3F547
:103A4C0084731B685A6107F58473A3F584731B6830
:103A5C001A6A07F58473A3F584731B681B699A4271
:103A6C000FD907F58473A3F584731B681A6AD7F80A
:103A7C000431D21A07F58473A3F584731B681A6298
:103A8C000EE007F58473A3F584731B681B6AC7F8F3
:103A9C00043107F58473A3F584731B6800221A6242
:103AAC0007F58473A3F584731B685B78002B77D1BF
:103ABC0007F58473A3F582731B68BB6107F58473E8
:103ACC00A3F582731B68B3F850309BB21A46BB69DE
:103ADC001344BB6107F58473A3F584731B681B78CF
:103AEC001A01BB69134403F204437B617B691B8895
:103AFC009BB2C3F309039AB27B691A80D7F80431DD
:103B0C003E2B21D9D7F804315B09C7F8FC30D7F824
:103B1C00043103F01F03002B04D1D7F8FC30013B18
:103B2C00C7F8FC307B691B889AB2D7F8FC309BB283
:103B3C009B029BB213439BB26FEA43436FEA53431E
:103B4C009AB27B691A8056E0D7F80431002B0AD15F
:103B5C007B691B889BB26FEA43436FEA53439AB26B
:103B6C007B691A8047E0D7F804315B08C7F8FC3052
:103B7C00D7F8043103F00103002B04D0D7F8FC3044
:103B8C000133C7F8FC307B691B889AB2D7F8FC303C
:103B9C009BB29B029BB213439AB27B691A802AE0B8
:103BAC0007F58473A3F584731B685B78012B22D112
:103BBC0007F58473A3F582731B683B6207F5847366
:103BCC00A3F582731B68B3F850309BB21A463B6A5C
:103BDC0013443B6207F58473A3F584731B681B784D
:103BEC001A013B6A134403F20443FB61D7F8043116
:103BFC009AB2FB691A8007F58473A3F584731B686A
:103C0C001B89A7F8763007F58473A3F584731B68BA
:103C1C005969D7F804319BB2B7F8762007F5847050
:103C2C00A0F58270006801F048FAEEE307F58473A2
:103C3C00A3F584731B685B78002B77D107F584732D
:103C4C00A3F582731B68BB6407F58473A3F58273B9
:103C5C001B68B3F850309BB21A46BB6C1344BB6460
:103C6C0007F58473A3F584731B681B781A01BB6C6E
:103C7C00134403F204437B647B6C1B889BB2C3F339
:103C8C0009039AB27B6C1A80D7F804313E2B21D9E8
:103C9C00D7F804315B09C7F8F830D7F8043103F0D2
:103CAC001F03002B04D1D7F8F830013BC7F8F830CC
:103CBC007B6C1B889AB2D7F8F8309BB29B029BB2F4
:103CCC0013439BB26FEA43436FEA53439AB27B6C44
:103CDC001A8056E0D7F80431002B0AD17B6C1B8874
:103CEC009BB26FEA43436FEA53439AB27B6C1A80E0
:103CFC0047E0D7F804315B08C7F8F830D7F804313F
:103D0C0003F00103002B04D0D7F8F8300133C7F8C7
:103D1C00F8307B6C1B889AB2D7F8F8309BB29B02B8
:103D2C009BB213439AB27B6C1A802AE007F584731A
:103D3C00A3F584731B685B78012B22D107F5847380
:103D4C00A3F582731B683B6507F58473A3F5827337
:103D5C001B68B3F850309BB21A463B6D13443B655D
:103D6C0007F58473A3F584731B681B781A013B6DEC
:103D7C00134403F20443FB64D7F804319AB2FB6C8E
:103D8C001A8007F58473A3F584731B681B89A7F845
:103D9C00763007F58473A3F584731B685969D7F8DB
:103DAC0004319BB2B7F8762007F58470A0F58270C9
:103DBC00006801F082F907F58473A3F584731B681E
:103DCC005A69D7F804311A4407F58473A3F5847340
:103DDC001B685A6107F58473A3F584731B681A6A10
:103DEC0007F58473A3F584731B681B699A420FD97A
:103DFC0007F58473A3F584731B681A6AD7F804312A
:103E0C00D21A07F58473A3F584731B681A620EE04B
:103E1C0007F58473A3F584731B681B6AC7F8043118
:103E2C0007F58473A3F584731B6800221A6207F5E7
:103E3C008473A3F582731B683B6407F58473A3F545
:103E4C0084731B685B78002B77D107F58473A3F51B
:103E5C0082731B68BB6307F58473A3F582731B68BD
:103E6C00B3F850309BB21A46BB6B1344BB6307F5D7
:103E7C008473A3F584731B681B781A01BB6B134402
:103E8C0003F20C437B637B6B1B889BB2C3F309036C
:103E9C009AB27B6B1A80D7F804313E2B21D9D7F814
:103EAC0004315B09C7F8F430D7F8043103F01F0371
:103EBC00002B04D1D7F8F430013BC7F8F4307B6BFE
:103ECC001B889AB2D7F8F4309BB29B029BB2134377
:103EDC009BB26FEA43436FEA53439AB27B6B1A80EF
:103EEC0050E0D7F80431002B0AD17B6B1B889BB2B6
:103EFC006FEA43436FEA53439AB27B6B1A8041E0FB
:103F0C00D7F804315B08C7F8F430D7F8043103F064
:103F1C000103002B04D0D7F8F4300133C7F8F43088
:103F2C007B6B1B889AB2D7F8F4309BB29B029BB286
:103F3C0013439AB27B6B1A8024E007F58473A3F5C4
:103F4C0084731B685B78012B1CD107F58473A3F574
:103F5C0082731B68B3F850309BB21A463B6C134407
:103F6C003B6407F58473A3F584731B681B781A01F3
:103F7C003B6C134403F20C43FB63D7F804319AB245
:103F8C00FB6B1A8007F58473A3F584731B685B893C
:103F9C00A7F8763007F58473A3F584731B68596909
:103FAC00D7F804319BB2B7F8762007F58470A0F5EA
:103FBC008270006801F081F827E207F58473A3F59D
:103FCC0084731B681B6AC7F8043107F58473A3F567
:103FDC0082731A6807F58473A3F584731B681B78C6
:103FEC009B0013441B889BB223F4E24323F0700321
:103FFC00A7F8623007F58473A3F582731A6807F586
:10400C008473A3F584731B681B789B001A44B7F860
:10401C00623043F07F4343F47F0343F4004343F0A7
:10402C0080039BB2138007F58473A3F582731B681E
:10403C00FB6507F58473A3F582731B68B3F85030E6
:10404C009BB21A46FB6D1344FB6507F58473A3F50D
:10405C0084731B681B781A01FB6D134403F2044331
:10406C00BB65D7F804319AB2BB6D1A8007F584731F
:10407C00A3F584731B681B89A7F8763007F5847346
:10408C00A3F584731B685969D7F804319BB2B7F850
:10409C00762007F58470A0F58270006801F00DF8A9
:1040AC00B3E107F58473A3F584731B681A6AD7F818
:1040BC000431D21A07F58473A3F584731B681A6252
:1040CC0007F58473A3F582731A6807F58473A3F557
:1040DC0084731B681B789B0013441B889BB203F0F2
:1040EC004003002B00F0C68007F58473A3F58273A0
:1040FC001B683B6707F58473A3F584731B685B78B7
:10410C00002B77D107F58473A3F582731B68BB660C
:10411C0007F58473A3F582731B68B3F850309BB218
:10412C001A46BB6E1344BB6607F58473A3F5847300
:10413C001B681B781A01BB6E134403F20C437B669D
:10414C007B6E1B889BB2C3F309039AB27B6E1A80F9
:10415C00D7F804313E2B21D9D7F804315B09C7F8C5
:10416C00F030D7F8043103F01F03002B04D1D7F83B
:10417C00F030013BC7F8F0307B6E1B889AB2D7F851
:10418C00F0309BB29B029BB213439BB26FEA43434A
:10419C006FEA53439AB27B6E1A8050E0D7F8043121
:1041AC00002B0AD17B6E1B889BB26FEA43436FEAEC
:1041BC0053439AB27B6E1A8041E0D7F804315B0806
:1041CC00C7F8F030D7F8043103F00103002B04D00A
:1041DC00D7F8F0300133C7F8F0307B6E1B889AB2F9
:1041EC00D7F8F0309BB29B029BB213439AB27B6E12
:1041FC001A8024E007F58473A3F584731B685B783D
:10420C00012B1CD107F58473A3F582731B68B3F8DB
:10421C0050309BB21A463B6F13443B6707F58473CF
:10422C00A3F584731B681B781A013B6F134403F2CC
:10423C000C43FB66D7F804319AB2FB6E1A8007F573
:10424C008473A3F584731B685B89A7F8763007F534
:10425C008473A3F584731B685969D7F804319BB236
:10426C00B7F8762007F58470A0F58270006800F02E
:10427C0024FFCAE007F58473A3F584731B685B788D
:10428C00002B77D107F58473A3F582731B68FB674A
:10429C0007F58473A3F582731B68B3F850309BB297
:1042AC001A46FB6F1344FB6707F58473A3F58473FD
:1042BC001B681B781A01FB6F134403F20443BB67A2
:1042CC00BB6F1B889BB2C3F309039AB2BB6F1A80F6
:1042DC00D7F804313E2B21D9D7F804315B09C7F844
:1042EC00EC30D7F8043103F01F03002B04D1D7F8BE
:1042FC00EC30013BC7F8EC30BB6F1B889AB2D7F897
:10430C00EC309BB29B029BB213439BB26FEA4343CC
:10431C006FEA53439AB2BB6F1A805CE0D7F8043152
:10432C00002B0AD1BB6F1B889BB26FEA43436FEA29
:10433C0053439AB2BB6F1A804DE0D7F804315B0837
:10434C00C7F8EC30D7F8043103F00103002B04D08C
:10435C00D7F8EC300133C7F8EC30BB6F1B889AB23E
:10436C00D7F8EC309BB29B029BB213439AB2BB6F53
:10437C001A8030E007F58473A3F584731B685B78AF
:10438C00012B28D107F58473A3F582731B68C7F83A
:10439C00843007F58473A3F582731B68B3F850302F
:1043AC009BB21A46D7F884301344C7F8843007F50B
:1043BC008473A3F584731B681B781A01D7F88430B7
:1043CC00134403F20443C7F88030D7F804319AB28F
:1043DC00D7F880301A8007F58473A3F584731B68B3
:1043EC001B89A7F8763007F58473A3F584731B68D3
:1043FC005969D7F804319BB2B7F8762007F5847069
:10440C00A0F58270006800F058FE07F58473A3F5E0
:10441C0082731A6807F58473A3F584731B681B7881
:10442C009B0013441B889BB223F4E04323F040030E
:10443C007B817B8983F010037B817B8983F0200354
:10444C007B8107F58473A3F582731A6807F584736F
:10445C00A3F584731B681B789B001A447B8943F07B
:10446C007F4343F47F0343F4004343F080039BB248
:10447C00138000F0DEBC07F58473A3F584731B680E
:10448C001B7B002B40F0BB8007F58473A3F5847372
:10449C001B689A6907F58473A3F584731B681B6901
:1044AC009A4217D907F58473A3F584731B681B69AB
:1044BC00C7F8043107F58473A3F584731B689A69F4
:1044CC00D7F80431D21A07F58473A3F584731B68EB
:1044DC009A610EE007F58473A3F584731B689B69DE
:1044EC00C7F8043107F58473A3F584731B680022A5
:1044FC009A6107F58473A3F582731B68C7F8903033
:10450C0007F58473A3F582731B68B3F850309BB224
:10451C001A46D7F890301344C7F8903007F58473D7
:10452C00A3F584731B681B781A01D7F890301344D9
:10453C0003F20C43C7F88C30D7F88C301B889BB235
:10454C00C3F309039AB2D7F88C301A80D7F8043128
:10455C003E2B24D9D7F804315B09C7F8E830D7F8DB
:10456C00043103F01F03002B04D1D7F8E830013BD2
:10457C00C7F8E830D7F88C301B889AB2D7F8E830F7
:10458C009BB29B029BB213439BB26FEA43436FEA0D
:10459C0053439AB2D7F88C301A8000F010BCD7F87D
:1045AC000431002B0CD1D7F88C301B889BB26FEAEE
:1045BC0043436FEA53439AB2D7F88C301A80FEE328
:1045CC00D7F804315B08C7F8E830D7F8043103F0AA
:1045DC000103002B04D0D7F8E8300133C7F8E830DA
:1045EC00D7F88C301B889AB2D7F8E8309BB29B0274
:1045FC009BB213439AB2D7F88C301A80DFE307F5DD
:10460C008473A3F584731B68DB78022B40F018824B
:10461C0007F58473A3F584731B685B78002B40F05B
:10462C009D8007F58473A3F582731B68C7F8AC30C3
:10463C0007F58473A3F582731B68B3F850309BB2F3
:10464C001A46D7F8AC301344C7F8AC3007F584736E
:10465C00A3F584731B681B781A01D7F8AC3013448C
:10466C0003F20443C7F8A830D7F8A8301B889BB2D4
:10467C00C3F309039AB2D7F8A8301A8007F58473EC
:10468C00A3F584731B681B693E2B2BD907F5847328
:10469C00A3F584731B681B695B09C7F8E43007F545
:1046AC008473A3F584731B681B6903F01F03002B31
:1046BC0004D1D7F8E430013BC7F8E430D7F8A83080
:1046CC001B889AB2D7F8E4309BB29B029BB213437F
:1046DC009BB26FEA43436FEA53439AB2D7F8A830C0
:1046EC001A8070E007F58473A3F584731B681B694B
:1046FC00002B0CD1D7F8A8301B889BB26FEA434330
:10470C006FEA53439AB2D7F8A8301A805BE007F5EA
:10471C008473A3F584731B681B695B08C7F8E430CA
:10472C0007F58473A3F584731B681B6903F00103FD
:10473C00002B04D0D7F8E4300133C7F8E430D7F8B5
:10474C00A8301B889AB2D7F8E4309BB29B029BB27C
:10475C0013439AB2D7F8A8301A8034E007F5847363
:10476C00A3F584731B685B78012B2CD107F584733C
:10477C00A3F582731B68C7F8B43007F58473A3F5EF
:10478C0082731B68B3F850309BB21A46D7F8B4301A
:10479C001344C7F8B43007F58473A3F584731B680E
:1047AC001B781A01D7F8B430134403F20443C7F84A
:1047BC00B03007F58473A3F584731B681B699AB238
:1047CC00D7F8B0301A8007F58473A3F582731B6891
:1047DC00C7F8A43007F58473A3F584731B685B7862
:1047EC00002B40F09D8007F58473A3F582731B6842
:1047FC00C7F89C3007F58473A3F582731B68B3F874
:10480C0050309BB21A46D7F89C301344C7F89C30F2
:10481C0007F58473A3F584731B681B781A01D7F80A
:10482C009C30134403F20C43C7F89830D7F89830F7
:10483C001B889BB2C3F309039AB2D7F898301A803D
:10484C0007F58473A3F584731B681B693E2B2BD966
:10485C0007F58473A3F584731B681B695B09C7F8A0
:10486C00E03007F58473A3F584731B681B6903F0B0
:10487C001F03002B04D1D7F8E030013BC7F8E03020
:10488C00D7F898301B889AB2D7F8E0309BB29B02CD
:10489C009BB213439BB26FEA43436FEA53439AB202
:1048AC00D7F898301A8069E007F58473A3F5847300
:1048BC001B681B69002B0CD1D7F898301B889BB256
:1048CC006FEA43436FEA53439AB2D7F898301A8091
:1048DC0054E007F58473A3F584731B681B695B08AC
:1048EC00C7F8E03007F58473A3F584731B681B6964
:1048FC0003F00103002B04D0D7F8E0300133C7F8E4
:10490C00E030D7F898301B889AB2D7F8E0309BB2D9
:10491C009B029BB213439AB2D7F898301A802DE0C1
:10492C0007F58473A3F584731B685B78012B25D181
:10493C0007F58473A3F582731B68B3F850309BB2F0
:10494C001A46D7F8A4301344C7F8A43007F584737B
:10495C00A3F584731B681B781A01D7F8A430134491
:10496C0003F20C43C7F8A03007F58473A3F58473E6
:10497C001B681B699AB2D7F8A0301A8007F58473AC
:10498C00A3F584731B68DB69002B00F0188207F514
:10499C008473A3F582731A6807F58473A3F5847383
:1049AC001B681B789B0013441B88A7F89630B7F83C
:1049BC00963003F48043002B05D0B7F8963003F003
:1049CC004003002B0DD1B7F8963003F48043002B35
:1049DC0040F0F581B7F8963003F04003002B40F01F
:1049EC00EE8107F58473A3F582731A6807F5847357
:1049FC00A3F584731B681B789B0013441B889BB224
:104A0C0023F4E04323F07003A7F8943007F5847384
:104A1C00A3F582731A6807F58473A3F584731B6876
:104A2C001B789B001A44B7F8943043F07F4343F44F
:104A3C007F0343F4004343F0C0039BB21380BEE1F9
:104A4C0007F58473A3F584731B68DB78012B40F0A6
:104A5C00B48107F58473A3F584731B689A6907F511
:104A6C008473A3F584731B681B699A4217D907F5E5
:104A7C008473A3F584731B681B69C7F8043107F5AD
:104A8C008473A3F584731B689A69D7F80431D21A1E
:104A9C0007F58473A3F584731B689A610EE007F520
:104AAC008473A3F584731B689B69C7F8043107F5FD
:104ABC008473A3F584731B6800229A6107F58473D1
:104ACC00A3F584731B685B78002B40F0858007F599
:104ADC008473A3F582731B68C7F8CC3007F5847315
:104AEC00A3F582731B68B3F850309BB21A46D7F803
:104AFC00CC301344C7F8CC3007F58473A3F584731A
:104B0C001B681B781A01D7F8CC30134403F204430A
:104B1C00C7F8C830D7F8C8301B889BB2C3F3090359
:104B2C009AB2D7F8C8301A80D7F804313E2B23D963
:104B3C00D7F804315B09C7F8DC30D7F8043103F03F
:104B4C001F03002B04D1D7F8DC30013BC7F8DC3055
:104B5C00D7F8C8301B889AB2D7F8DC309BB29B02CE
:104B6C009BB213439BB26FEA43436FEA53439AB22F
:104B7C00D7F8C8301A8060E0D7F80431002B0CD17C
:104B8C00D7F8C8301B889BB26FEA43436FEA534394
:104B9C009AB2D7F8C8301A804FE0D7F804315B08C6
:104BAC00C7F8DC30D7F8043103F00103002B04D034
:104BBC00D7F8DC300133C7F8DC30D7F8C8301B88A5
:104BCC009AB2D7F8DC309BB29B029BB213439AB2D9
:104BDC00D7F8C8301A8030E007F58473A3F58473D6
:104BEC001B685B78012B28D107F58473A3F58273BE
:104BFC001B68C7F8D43007F58473A3F582731B6860
:104C0C00B3F850309BB21A46D7F8D4301344C7F8D7
:104C1C00D43007F58473A3F584731B681B781A01D1
:104C2C00D7F8D430134403F20443C7F8D030D7F884
:104C3C0004319AB2D7F8D0301A8007F58473A3F5F3
:104C4C0082731B68C7F8C43007F58473A3F58473AB
:104C5C001B685B78002B40F0858007F58473A3F507
:104C6C0082731B68C7F8BC3007F58473A3F5827395
:104C7C001B68B3F850309BB21A46D7F8BC301344BB
:104C8C00C7F8BC3007F58473A3F584731B681B78D5
:104C9C001A01D7F8BC30134403F20C43C7F8B830F0
:104CAC00D7F8B8301B889BB2C3F309039AB2D7F874
:104CBC00B8301A80D7F804313E2B23D9D7F80431F9
:104CCC005B09C7F8D830D7F8043103F01F03002B69
:104CDC0004D1D7F8D830013BC7F8D830D7F8B83062
:104CEC001B889AB2D7F8D8309BB29B029BB2134365
:104CFC009BB26FEA43436FEA53439AB2D7F8B8308A
:104D0C001A805CE0D7F80431002B0CD1D7F8B830FE
:104D1C001B889BB26FEA43436FEA53439AB2D7F8AE
:104D2C00B8301A804BE0D7F804315B08C7F8D8309C
:104D3C00D7F8043103F00103002B04D0D7F8D83096
:104D4C000133C7F8D830D7F8B8301B889AB2D7F8E7
:104D5C00D8309BB29B029BB213439AB2D7F8B830AF
:104D6C001A802CE007F58473A3F584731B685B78B9
:104D7C00012B24D107F58473A3F582731B68B3F858
:104D8C0050309BB21A46D7F8C4301344C7F8C4301D
:104D9C0007F58473A3F584731B681B781A01D7F885
:104DAC00C430134403F20C43C7F8C030D7F80431B5
:104DBC009AB2D7F8C0301A8001E001233AE007F527
:104DCC008473A3F582731A6807F58473A3F584734F
:104DDC001B681B789B0013441B889BB223F48043F5
:104DEC0023F07003A7F88A30B7F88A3083F4805325
:104DFC00A7F88A30B7F88A3083F40053A7F88A30C2
:104E0C0007F58473A3F582731A6807F58473A3F509
:104E1C0084731B681B789B001A44B7F88A3043F0E4
:104E2C007F4343F47F0343F4004343F080039BB27E
:104E3C0013800023184607F58477BD4680BD80B4E7
:104E4C0085B000AF786039603B685B78002B20D070
:104E5C007A683B681B789B0013441B889BB223F435
:104E6C00E04323F04003BB81BB8983F01003BB817B
:104E7C007A683B681B789B001A44BB8943F07F43DC
:104E8C0043F47F0343F4004343F080039BB213804D
:104E9C001FE07A683B681B789B0013441B889BB20D
:104EAC0023F4804323F07003FB81FB8983F480534C
:104EBC00FB817A683B681B789B001A44FB8943F0A2
:104ECC007F4343F47F0343F4004343F080039BB2DE
:104EDC001380002318461437BD4680BC704780B43D
:104EEC0087B000AF786039603B681B7B002B40F0CB
:104EFC009D803B685B78002B4CD07A683B681B78B4
:104F0C009B0013441B883B823B8A03F04003002B1D
:104F1C001BD07A683B681B789B0013441B889BB2A0
:104F2C0023F4E04323F07003FB817A683B681B7821
:104F3C009B001A44FB8943F07F4343F47F0343F403
:104F4C00004343F0C0039BB213803B68DB78012B1A
:104F5C006CD07A683B681B789B0013441B889BB20F
:104F6C0023F4E04323F04003BB81BB8983F020038F
:104F7C00BB817A683B681B789B001A44BB8943F061
:104F8C007F4343F47F0343F4004343F080039BB21D
:104F9C0013804BE07A683B681B789B0013441B889A
:104FAC00FB82FB8A03F48043002B1BD07A683B689E
:104FBC001B789B0013441B889BB223F4E04323F023
:104FCC007003BB827A683B681B789B001A44BB8ACF
:104FDC0043F07F4343F47F0343F4404343F08003A7
:104FEC009BB213807A683B681B789B0013441B8828
:104FFC009BB223F4804323F070037B827B8A83F47F
:10500C0080537B827B8A83F400537B827A683B6873
:10501C001B789B001A447B8A43F07F4343F47F0345
:10502C0043F4004343F080039BB2138000231846E3
:10503C001C37BD4680BC704780B483B000AF78602D
:10504C000B46FB70FB78002B03D17B688022A3F806
:10505C004C20002318460C37BD4680BC704780B4EA
:10506C0083B000AF7860002318460C37BD4680BC77
:10507C00704780B483B000AF7860002318460C37BB
:10508C00BD4680BC704780B485B000AF78607B684B
:10509C00B3F844309BB2FB60FB6818461437BD462E
:1050AC0080BC704780B483B000AF78603960002357
:1050BC0018460C37BD4680BC704780B48BB000AF2F
:1050CC00F860B96011461A460B46FB801346BB804C
:1050DC00BB8801335B08BB61FB687B61BB68FB6110
:1050EC00FB885A007B69134403F580633B62BB6900
:1050FC007B621EE0FB691B787B82FB6901331B78AA
:10510C001B021AB2B7F9123013431BB27B823B6AF3
:10511C007A8A1A803B6A02333B623B6A02333B62F7
:10512C00FB690133FB61FB690133FB617B6A013B6A
:10513C007B627B6A002BDDD100BF00BF2C37BD46E4
:10514C0080BC704780B48BB000AFF860B96011467A
:10515C001A460B46FB801346BB80BB885B089BB290
:10516C00BB61FB687B61BB68FB61FB885A007B6998
:10517C00134403F580633B62BB697B621BE03B6AB3
:10518C001B889BB23B613B6A02333B623B69DAB2E0
:10519C00FB691A70FB690133FB613B691B0ADAB2CC
:1051AC00FB691A70FB690133FB613B6A02333B629A
:1051BC007B6A013B7B627B6A002BE0D1BB8803F0EE
:1051CC0001039BB2002B07D03B6A1B889BB23B614F
:1051DC003B69DAB2FB691A7000BF2C37BD4680BC44
:1051EC00704780B485B000AF78600B467B8000239D
:1051FC00FB810023BB810AE0BB897A6813441B78CE
:10520C001A46FB891344FB81BB890133BB81BA89E4
:10521C007B889A42F0D3FB8918461437BD4680BC74
:10522C00704780B586B000AFF860B9601346FB805C
:10523C00FB88023B9BB21946B868FFF7D2FF0346C6
:10524C00FB82FA8AFB88023BB9680B441B781B0271
:10525C00F9880139B868014409780B439A4203D0A4
:10526C00FB68DB6801209847BB6801331B78DB09BE
:10527C00DBB203F00103D9B2FA68937961F300034E
:10528C009371BB6801331B7803F07F03DAB2FB68C0
:10529C00DA71FB68DB79012B02D0022B35D075E07B
:1052AC00FB68DB6800209847FB689B7903F00103DF
:1052BC00DBB2002B14D00723FB80BB680233022225
:1052CC001A70FB685B881B0A9AB2BB680333D2B2B4
:1052DC001A70FB685A88BB680433D2B21A7036E075
:1052EC000523FB80BB6803331B781B021AB2BB6817
:1052FC0004331B781BB213431BB29AB2FB685A805F
:10530C00BB68023300221A7021E0FB68DB680020C6
:10531C009847FB689B7903F00103DBB2002B0BD0A1
:10532C000623FB80BB68023301221A70BB6803336F
:10533C00FA6852781A7009E00523FB80BB68DA78AA
:10534C00FB685A70BB68023300221A7000BFFB88DE
:10535C00023B9BB21946B868FFF743FF0346FB823A
:10536C00FB8A1B0A99B2FB88023BBA681344CAB287
:10537C001A70FB88013BBA681344FA8AD2B21A70CD
:10538C00FB689B68FA881146B86898471837BD4681
:10539C0080BD80B584B000AF78600B46FB700023F5
:1053AC00FB737B681B7C002B15D14FF4007302221E
:1053BC008121786801F08BFE7B680122DA624FF460
:1053CC00007302220121786801F081FE7B680122C2
:1053DC00C3F86C2112E0402302228121786801F08D
:1053EC0076FE7B680122DA62402302220121786872
:1053FC0001F06DFE7B680122C3F86C2108230322A7
:10540C008221786801F063FE7B6801221A644FF4F4
:10541C00077001F083FF02467B68C3F8B8227B68F3
:10542C00D3F8B832002B02D10123FB7326E07B6842
:10543C00D3F8B832BB607B68D3F8BC321B68984792
:10544C00BB680022C3F81422BB680022C3F81822E0
:10545C007B681B7C002B09D1BB68D3F804224FF46A
:10546C0000730121786801F022FF07E0BB68D3F8D4
:10547C00042240230121786801F019FFFB7B1846B8
:10548C001037BD4680BD80B584B000AF78600B4648
:10549C00FB700023FB738121786801F03EFE7B6872
:1054AC000022DA620121786801F037FE7B68002265
:1054BC00C3F86C218221786801F02FFE7B680022F2
:1054CC001A647B68D3F8B832002B0ED07B68D3F803
:1054DC00BC325B6898477B68D3F8B832184601F049
:1054EC0029FF7B680022C3F8B822FB7B18461037D3
:1054FC00BD4680BD80B586B000AF786039607B68F2
:10550C00D3F8B8323B610023FB730023BB8100232B
:10551C00FB753B681B7803F06003002B39D0202B04
:10552C007FD13B68DB88002B29D03B681B785BB2B2
:10553C00002B11DA7B68D3F8BC329B683A68507840
:10554C0039693A68D288984739693B68DB881A46CA
:10555C00786801F005FA6BE03B685A783B6983F890
:10556C0000223B68DB88DAB23B6983F80122396997
:10557C003B68DB881A46786801F020FA58E07B68B3
:10558C00D3F8BC329B683A68507800223968984747
:10559C004EE03B685B780B2B2ED00B2B38DC002BB2
:1055AC0002D00A2B14D033E07B6893F89C32032B87
:1055BC0007D107F10C0302221946786801F0D0F9E3
:1055CC002EE03968786801F061F90223FB7527E059
:1055DC007B6893F89C32032B07D107F10F03012250
:1055EC001946786801F0BCF91AE03968786801F05E
:1055FC004DF90223FB7513E07B6893F89C32032B67
:10560C000DD03968786801F041F90223FB7506E08A
:10561C003968786801F03AF90223FB7500E000BFA5
:10562C0006E03968786801F031F90223FB7500BF98
:10563C00FB7D18461837BD4680BD80B584B000AFE1
:10564C0078600B46FB707B68D3F8B832FB607B68E4
:10565C00D3F8C032BB607B68D3F8B832002B3AD099
:10566C00FA78796813469B0013449B000B441C3357
:10567C001B68002B29D0FA78796813469B001344D9
:10568C009B000B441C331A68F978B8680B469B00D6
:10569C000B44DB00034420331B68B2FBF3F101FB2A
:1056AC0003F3D31A002B10D1FA78796813469B00B8
:1056BC0013449B000B441C3300221A60F97800231E
:1056CC000022786801F0D0FD03E0FB680022C3F8EB
:1056DC001422002300E0022318461037BD4680BD7B
:1056EC0080B584B000AF78600B46FB707B68D3F854
:1056FC00B832FB60FB781946786801F0FBFD024676
:10570C00FB68C3F80C227B68D3F8B832002B0DD0A1
:10571C007B68D3F8BC32DB68FA68D2F80402FA680A
:10572C0002F5037211469847002300E00223184645
:10573C001037BD4680BD80B584B000AF78607B6803
:10574C00D3F8B832FB607B68D3F8BC32002B14D092
:10575C00FB6893F80032FF2B0FD07B68D3F8BC3278
:10576C009B68FA6892F80002F968FA6892F80122CC
:10577C009847FB68FF2283F8002200231846103755
:10578C00BD4680BD80B483B000AF78607B68432297
:10579C001A80034B18460C37BD4680BC704700BFBF
:1057AC00A400002080B483B000AF78607B684322F3
:1057BC001A80034B18460C37BD4680BC704700BF9F
:1057CC006000002080B483B000AF78607B68432217
:1057DC001A80034B18460C37BD4680BC704700BF7F
:1057EC00E800002080B483B000AF78607B680A22A8
:1057FC001A80034B18460C37BD4680BC704700BF5F
:10580C001C00002080B485B000AF786039600223A2
:10581C00FB733B68002B05D07B683A68C3F8BC224D
:10582C000023FB73FB7B18461437BD4680BC7047C6
:10583C0080B487B000AFF860B9601346FB80FB689A
:10584C00D3F8B8327B617B69BA68C3F80822FA884E
:10585C007B69C3F81022002318461C37BD4680BC58
:10586C00704780B485B000AF786039607B68D3F83E
:10587C00B832FB60FB683A68C3F804220023184670
:10588C001437BD4680BC704780B584B000AF7860DB
:10589C007B68D3F8B832FB607B68D3F8B832002B46
:1058AC001CD0FB68D3F81432002B15D1FB680122F5
:1058BC00C3F81422FB68D3F810227B681A63FB68C8
:1058CC00D3F80822FB68D3F810329BB28121786898
:1058DC0001F0CAFC002302E0012300E00223184679
:1058EC001037BD4680BD80B584B000AF78607B6852
:1058FC00D3F8B832FB607B68D3F8B832002B17D0E2
:10590C007B681B7C002B09D1FB68D3F804224FF475
:10591C0000730121786801F0CAFC07E0FB68D3F83A
:10592C00042240230121786801F0C1FC002300E02F
:10593C00022318461037BD4680BD80B584B000AF39
:10594C00F860B9601346FB71FB68002B01D1022390
:10595C001AE0FB68D3F8B432002B03D0FB680022AA
:10596C00C3F8B422BB68002B03D0FB68BA68C3F839
:10597C00B022FB68012283F89C22FB68FA791A702A
:10598C00F86801F02FFB002318461037BD4680BD88
:10599C0080B485B000AF786039600023FB733B683E
:1059AC00002B06D07B683A68C3F8B4220023FB7343
:1059BC0001E00223FB73FB7B18461437BD4680BC09
:1059CC00704780B582B000AF7860786801F064FBF6
:1059DC00002318460837BD4680BD80B483B000AFA5
:1059EC007860002318460C37BD4680BC704780B5E4
:1059FC0084B000AF78600B46FB700223FB737B68AE
:105A0C00D3F8B432002B0CD07B68D3F8B4321B68BB
:105A1C00FA781146786898470346002B01D1002389
:105A2C00FB73FB7B18461037BD4680BD80B582B03A
:105A3C0000AF78600B46FB707B68D3F8B4325B68C0
:105A4C00FA78114678689847002318460837BD46FF
:105A5C0080BD80B582B000AF786039607B6803F59B
:105A6C002A733968184600F0D8FE7B680122C3F807
:105A7C0094227B68B3F8AE321A467B68C3F898223E
:105A8C007B6893F8A83203F01F03022B16D0022B6D
:105A9C001CD8002B02D0012B08D017E07B6803F533
:105AAC002A731946786800F0CBF91AE07B6803F585
:105ABC002A731946786800F02DFA12E07B6803F51A
:105ACC002A731946786800F06DFA0AE07B6893F83F
